:020000040800F2
:1000000008150020B91B0008410600084306000837
:10001000470600084B0600084F06000800000000D5
:10002000000000000000000000000000530600086F
:100030005506000800000000570600085906000891
:10004000D31B0008D31B0008D31B0008D31B0008D8
:10005000D31B0008D31B0008D31B0008D31B0008C8
:10006000D31B0008D31B0008CD100008D31B0008C9
:10007000D31B0008D31B0008D31B0008D31B0008A8
:10008000D31B0008D31B0008D31B0008D31B000898
:10009000D31B0008D31B0008D31B0008D31B000888
:1000A000D31B0008D31B0008D31B0008D31B000878
:1000B00049120008D31B0008D31B0008D31B0008FB
:1000C000D31B0008D31B0008D31B0008D31B000858
:1000D000D31B0008BD150008331700086917000876
:1000E000D31B0008D31B0008D31B0008D31B000838
:1000F000D31B0008D31B0008D31B0008D31B000828
:10010000D31B0008D31B0008D31B0008D31B000817
:10011000D31B0008D31B0008D31B0008D31B000807
:10012000D31B0008D31B0008D31B0008D31B0008F7
:1001300000F002F800F0B0F80AA090E8000C824449
:100140008344AAF10107DA4501D100F0A5F8AFF226
:10015000090EBAE80F0013F0010F18BFFB1A43F0A5
:1001600001031847646E0000846E00000A444FF0DB
:10017000000C10F8013B13F0070408BF10F8014B06
:100180001D1108BF10F8015B641E05D010F8016B4B
:10019000641E01F8016BF9D113F0080F1EBF10F8AF
:1001A000014BAD1C0C1B09D16D1E58BF01F801CBD2
:1001B000FAD505E014F8016B01F8016B6D1EF9D555
:1001C0009142D6D37047000000230024002500266A
:1001D000103A28BF78C1FBD8520728BF30C148BFAA
:1001E0000B6070476E2903F07085702904F0E7807A
:1001F000662905F08E85652905F08B85672905F050
:1002000088856129AFF3008003681B0A28BF41F08D
:100210008001692903F0A483642903F0A18375296F
:1002200003F09E836F2904F07580782904F0B38071
:10023000E92904F00F80E42904F00C80F52904F08A
:100240000980EF2904F07280F82904F0B280036875
:10025000DB0928BF41F08001632903F07E87732901
:1002600003F08387E32904F04981F32904F04E81E8
:10027000002070471FB504F0ADF8040000200021F5
:1002800004F03EFE401C60600020002104F022FECD
:10029000E0601FBD10B510BD04F0D2F91146FFF7A4
:1002A000E9FF00F009F804F0F9F903B4FFF7F2FFF1
:1002B00003BC01F029F900001CB500BF4FF07C5AC7
:1002C00000200190CE49086001F0B4F84FF4A0601E
:1002D00001F092FC4FF4E13001F024F94FF4965014
:1002E00001F0ABFB00F0AAFA00F0E8FA00F03DFEE6
:1002F00000F042FC01F048F8642001F0D8F8012039
:10030000C0490860C0490860002144F6EE5000F082
:1003100001FF002144F6EE5000F062FF6EE101247F
:1003200000BF4FF4C87004FB00F94946002003F0F9
:100330007AFA40F2DC5001F0BAF840F2DC5001F0F9
:10034000B6F84946B1A003F0BFFA002000F0D0FA99
:1003500001909DF8040030B39DF80400012811D0ED
:10036000022802D003281DD119E0504605F00CFAEE
:100370000746A94AA94B04F00BFE054604F0D6FD3A
:1003800082460FE0504605F0FFF90546A24AA34B0E
:1003900005F010F9074604F0C9FD824602E000F0BE
:1003A000EBFB00BF02E00A2001F081F896480068EC
:1003B00050B14FF4FA6001F07AF801F086FA0020AB
:1003C0009149086001F033FA002406E0E2B2210707
:1003D000080E002100F00EFD641C032CF6DB002447
:1003E00007E0E11CCAB22107080E032100F002FD5C
:1003F000641C032CF5DB002407E0A11DCAB2210711
:10040000080E062100F0F6FC641C052CF5DB844880
:100410000068844990FBF1F5102001232A46002151
:100420000090302000F07DFC7D48006842F21071A1
:1004300090FBF1F00A2190FBF1F201FB1205102074
:1004400001232A4600210090382000F06AFC0C238A
:100450002E220121402000F0CDFB714800684FF4AE
:100460007A7190FBF1F00A2190FBF1F201FB120589
:10047000102001232A4600210090482000F051FC62
:1004800067480068642190FBF1F00A2190FBF1F2CB
:1004900001FB1205102001232A4600210090502064
:1004A00000F03FFC5E4800680A2190FBF1F090FBF1
:1004B000F1F201FB1205102001232A4600210090D1
:1004C000582000F02EFC564800680A2190FBF1F2FB
:1004D00001FB1205102001232A4600210090602014
:1004E00000F01FFC1023562200216B2000F082FB3D
:1004F0004D48006842F2107190FBF1F00A2190FB28
:10050000F1F201FB1205102001232A46032100907D
:10051000302000F006FC0C232E220421382000F0AD
:1005200069FB414800684FF47A7190FBF1F00A21B1
:1005300090FBF1F201FB1205102001232A46032152
:100540000090402000F0EDFB37480068642190FBEC
:10055000F1F00A2190FBF1F201FB120510200123BA
:100560002A4603210090482000F0DBFB2E4800685B
:100570000A2190FBF1F090FBF1F201FB1205102033
:1005800001232A4603210090502000F0CAFB264890
:1005900000680A2190FBF1F201FB120510200123F3
:1005A0002A4603210090582000F0BBFB1023412273
:1005B0000321632000F01EFB1C48006805F0E4F8EE
:1005C00005462A460B461AA11B4803F089F9082361
:1005D000194A0521482000F0F0FB504605F0D4F8F8
:1005E00005462A460B4612A1144803F079F9082360
:1005F000124A0621482000F0E0FB00BF8FE6000011
:1006000094812142E4010020D80100206120203A99
:100610002564200D0A0000009A9999999999B93F8B
:10062000AC010020A0860100B0010020C80100201C
:10063000252E33660000000000000020030000208B
:10064000704700BFFEE700BFFEE700BFFEE700BF48
:10065000FEE7704770477047704700000CB50020F8
:10066000019000906C48006840F480306A4908604E
:1006700000BF6948006800F4003000900198401CF9
:100680000190009818B90198B0F5A06FF1D16248B7
:10069000006800F4003010B10120009001E000205B
:1006A00000900098012843D15C48006840F0100099
:1006B0005A4908600846006820F0030008600846B0
:1006C000006840F0020008605348406852494860A2
:1006D0000846406848600846406840F480604860CA
:1006E0000846406820F47C1048600846406840F4A2
:1006F000E81048600846006840F08070086000BF5D
:100700004548006800F000700028F9D04248406871
:1007100020F00300404948600846406840F002006D
:10072000486000BF3C48406800F00C000828F9D140
:100730000CBD10B5FFF792FF10BD10B5364800682C
:1007400040F00100344908600846406834490840D8
:100750003149486008460068324908402E4908601F
:100760000846006820F4802008600846406820F4AD
:10077000FE0048604FF41F008860FFF7DAFF4FF07B
:1007800000602949086010BD10B50021002000223A
:10079000214B5B6803F00C0121B1042906D0082924
:1007A00028D107E0214B224C236027E01F4B204C2F
:1007B000236023E0184B5B6803F47010164B5B68F2
:1007C00003F48032022303EB904022B9194B4343D8
:1007D000174C23600DE0104B5B6803F4003323B12A
:1007E000144B4343124C236003E0104B4343104C23
:1007F000236003E00D4B0E4C236000BF00BF064B8F
:100800005B68C3F303130C4CE15C094B1B68CB40E2
:10081000074C236010BD0000001002400020024081
:100820000000FFF8FFFFF6FE08ED00E000127A007E
:100830006401002000093D006801002008B5012185
:10084000482001F063FD2020ADF8000010208DF855
:10085000030003208DF802006946164801F09AFA59
:100860002021144801F043FB2020ADF80000694628
:10087000114801F08FFA20210F4801F038FB402089
:10088000ADF8000003208DF8020010208DF8030061
:100890006946084801F07EFA8020ADF80000032088
:1008A0008DF8020010208DF803006946014801F020
:1008B00071FA08BD000C01400018014008B5012183
:1008C000442001F023FD1820ADF8000048208DF8E9
:1008D000030069462C4801F05DFA0120ADF80000E4
:1008E00028208DF803006946284801F053FA08BD16
:1008F00010B5044614B10120254908702448007839
:1009000058B31021204801F0D8FA50B108211E48F0
:1009100001F0D3FA28B101211C4801F0CEFA0128D8
:100920001BD10A2000F0C3FD0020194908701021D6
:10093000154801F0C2FA08B9012010BD082112487B
:1009400001F0BBFA08B90220F7E701210F4801F0D6
:10095000B4FA012815D10320EFE710210A4801F06D
:10096000ACFA01280DD10821074801F0A6FA0128A8
:1009700007D10121054801F0A0FA10B9012004496E
:1009800008700020D9E7000000180140000801406D
:100990007801002010B54021F84801F0A8FA802124
:1009A000F64801F0A4FA8021F44801F0A2FA4021AF
:1009B000F24801F09EFA10BD10B54021EF4801F059
:1009C00096FA8021ED4801F094FA8021EB4801F07D
:1009D0008EFA10BD10B54021E84801F088FA402198
:1009E000E64801F086FA10BD2DE9F04105462C4697
:1009F0004021E24801F07DFA002619E0274607F081
:100A00008007802F04D18021DC4801F070FA03E0D8
:100A10008021DA4801F06DFA6006040E4021D748C3
:100A200001F065FA4021D54801F063FA701CC6B2A6
:100A3000082EE3DBBDE8F08110B50446FFF7AAFFFE
:100A40007820FFF7D1FFFFF7C5FF0020FFF7CCFFAD
:100A5000FFF7C0FF2046FFF7C7FFFFF7BBFFFFF719
:100A6000ABFF10BD10B50446FFF794FF7820FFF7E9
:100A7000BBFFFFF7AFFF4020FFF7B6FFFFF7AAFF6E
:100A80002046FFF7B1FFFFF7A5FFFFF795FF10BD69
:100A900070B504460D461DB1E0B2FFF7E3FF02E07A
:100AA000E0B2FFF7C9FF70BD70B50646002418E03C
:100AB00004F1B0000021FFF7EBFF00210846FFF72B
:100AC000E7FF00211020FFF7E3FF002505E00121EB
:100AD0003046FFF7DDFF681CC5B2802DF7DB601CD8
:100AE000C4B2082CE4DB70BD06E041F6650100E00D
:100AF000491E0029FCD1401E0028F6D1704701464E
:100B000005E0002001E0421CD0B27B28FBDB0A009C
:100B1000A1F10101F5D1704770B504460D4605F10C
:100B2000B0000021FFF7B4FF102141EA14100021AA
:100B3000FFF7AEFF04F00F000021FFF7A9FF70BD23
:100B400010B500218D20FFF7A3FF00211420FFF72F
:100B50009FFF0021AF20FFF79BFF10BD10B50021C4
:100B60008D20FFF795FF00211020FFF791FF002156
:100B7000AE20FFF78DFF10BD70B5002418E004F122
:100B8000B0000021FFF784FF00210846FFF780FF37
:100B900000211020FFF77CFF002505E00121002047
:100BA000FFF776FF681CC5B2802DF7DB601CC4B26E
:100BB000082CE4DB70BD70B5002418E004F1B0002F
:100BC0000021FFF765FF00210846FFF761FF0021C4
:100BD0001020FFF75DFF002505E001210846FFF723
:100BE00057FF681CC5B2802DF7DB601CC4B2082C0F
:100BF000E4DB70BD2DE9F04707460E469046994666
:100C000000250024A8F12000C5B27F2F02DD0027B7
:100C1000B01CC6B2B9F1100F24D131463846FFF7E7
:100C20007BFF002408E004EB0511554A505C0121CC
:100C3000FFF72EFF601CC4B2082CF4DB701CC1B29D
:100C40003846FFF769FF002409E004EB051108317D
:100C50004B4A505C0121FFF71BFF601CC4B2082CFB
:100C6000F3DB12E031463846FFF756FF00240AE076
:100C700005EB4501434A02EB4101085D0121FFF705
:100C800007FF601CC4B2062CF2DBBDE8F08710B58C
:100C900004461CB90021A620FFF7FAFE012C03D15F
:100CA0000021A720FFF7F4FE10BD10B504463CB9A3
:100CB0000021C820FFF7ECFE0021A120FFF7E8FE8D
:100CC000012C07D10021C020FFF7E2FE0021A02067
:100CD000FFF7DEFE10BD70B50A46CE1701EB567663
:100CE000C6F3C703CE1701EB5676F610A1EBC60686
:100CF000F4B20122A240D5B2234A02EBC002D25C78
:100D00002A43214E06EBC006F25470BD10B50246D0
:100D1000012000E050430B00A1F10104E1B2F9D140
:100D200010BD2DE9FF5F074691461E460E9D4FF010
:100D3000000A00243DE0301B401EC1B20A20FFF72C
:100D4000E5FFB9FBF0F00A21B0FBF1F201FB12085C
:100D5000BAF1000F1CD1701EA04219DDB8F1000FCE
:100D600014D1AB4605EBDB71491001FB0471C8B22D
:100D70002B4620220199FFF73DFF18E0000C0140AF
:100D80003E5F0008165D0008040200204FF0010AD3
:100D9000AB4605EBDB71491001FB0471C8B208F1E9
:100DA0003001CAB22B460199FFF724FF00BF601C37
:100DB000C4B2B442BFDBBDE8FF9F2DE9F041044659
:100DC0000F461546984600260FE0AA5D4346394671
:100DD0002046FFF70FFF04F10800C4B2782C02DDB3
:100DE0000024B81CC7B2701CC6B2A85D0028ECD1A4
:100DF000BDE8F0812DE9F04180460E4615460027FA
:100E000031464046FFF788FE00240AE0914A02EB93
:100E10004511085D0121FFF73BFE781CC7B2601C3D
:100E2000C4B2102CF2DB701CC1B24046FFF774FE56
:100E300000240CE06900491C864A02EB0111085DA0
:100E40000121FFF725FE781CC7B2601CC4B2102C2C
:100E5000F0DBBDE8F08170B50B46CE1701EB56769E
:100E6000C6F3C702CE1701EB5676F610A1EBC60605
:100E7000F4B20123A340DDB2774B03EBC0039B5CCC
:100E8000DB43754E06EBC006B354734B03EBC00354
:100E90009B5C2B43704E06EBC006B3546E4B03EBCA
:100EA000C0039B5CDB436C4E06EBC006B35470BDC5
:100EB0002DE9F05F06460F4690461C46DDF828A057
:100EC0004FF0000BE11704EB5171C910A4EBC10105
:100ED00031B92046E11704EB5171C1F3C70506E0B3
:100EE0002046E11704EB5171C910491CCDB23D46B3
:100EF00015E029463046FFF70FFEB1460BE0594694
:100F00000BF1010B1AF801000121FFF7C1FD09F1F6
:100F1000010000F0FF09C145F1DB681CC5B2A54224
:100F2000E7DBBDE8F09F70B500241BE004F1B000E2
:100F30000021FFF7ADFD00210846FFF7A9FD0021C4
:100F40001020FFF7A5FD002508E0434901EBC5018E
:100F5000085D0121FFF79CFD681CC5B2802DF4DB04
:100F6000601CC4B2082CE1DB70BD10B50021AE20BE
:100F7000FFF78EFD00210846FFF78AFD00211020B3
:100F8000FFF786FD00214020FFF782FD0021812030
:100F9000FFF77EFD0021CF20FFF77AFD0021A12081
:100FA000FFF776FD0021C820FFF772FD0021A62083
:100FB000FFF76EFD0021A820FFF76AFD00213F200A
:100FC000FFF766FD0021D320FFF762FD00210846F0
:100FD000FFF75EFD0021D520FFF75AFD002180209C
:100FE000FFF756FD0021D920FFF752FD0021F12027
:100FF000FFF74EFD0021DA20FFF74AFD0021122005
:10100000FFF746FD0021DB20FFF742FD00214020D5
:10101000FFF73EFD00212020FFF73AFD00210220CE
:10102000FFF736FD00218D20FFF732FD002114204F
:10103000FFF72EFD0021A420FFF72AFD0021A620A6
:10104000FFF726FD0021AF20FFF722FDFFF794FDFB
:1010500010BD0000040000200402002008B501219A
:10106000102001F053F91020ADF8000048208DF851
:1010700003006946244800F08DFE08BD0EB501212D
:10108000084601F043F9FFF7E9FF0421022000F0D0
:1010900097FF1020019001208DF80A0000208DF8A4
:1010A000080008208DF8090001A801F0A5FB0A201E
:1010B0008DF8000001208DF8030002208DF801005A
:1010C0008DF80200684600F09CFD0EBD10B50820AA
:1010D00001F0F8FBB8B1142000F0E9F90B48006802
:1010E00070B901210A4802F037F80121880702F09F
:1010F00033F8012005490860102001F0F4FB02E0FC
:10110000102001F0F0FB10BD001001407C01002018
:10111000002C014030B589B004460D468D4800686A
:10112000B0FBF4F0401E8C49086008460068401E81
:10113000322148436421B0FBF1F080B28749086056
:101140000121C80201F0E2F80121042001F0DEF8DB
:101150004020ADF8200018208DF8230003208DF8E2
:10116000220008A97E4800F015FE7B48008880B266
:10117000ADF81800A8B2ADF814000020ADF81A00C0
:10118000ADF816008DF81C0005A9764801F088FC22
:101190006020ADF804000120ADF806000420ADF891
:1011A00008006E48008880B2ADF80A000020ADF853
:1011B0000C00ADF80E004FF48070ADF81000002068
:1011C000ADF8120001A9674801F0A7FC08216548A5
:1011D00002F0F2F80121634801F0CAFF09B030BD06
:1011E0007FB504460D460121084601F09CF8594898
:1011F0000068B0FBF4F0401E5749086008460088BC
:1012000080B2ADF80800A8B2ADF804000020ADF837
:101210000A00ADF8060001A94FF0804001F040FC43
:1012200001221146900701F0B2FF1C208DF800004A
:1012300002208DF801008DF8020001208DF80300D6
:10124000684600F0DEFC7FBD70B50121880702F022
:101250004CFA00287CD0444801684448006804F0F7
:10126000BFFA42490860424801684248006804F0F9
:10127000B7FA404908604049404A128851F82200B4
:1012800004F0F2FB06463B480168304604F000FCDF
:10129000054604F0C9FB84B22146324802F0F4F955
:1012A0003549374A128851F8220004F0DDFB064622
:1012B00030480168304604F0EBFB054604F0B4FB0F
:1012C00084B22146274802F0E1F92B492D4A1288C1
:1012D00051F8220004F0C8FB064626480168304653
:1012E00004F0D6FB054604F09FFB84B221461D485E
:1012F00002F0CEF92148008840F28F11884202D1D5
:1013000000201E4908801E48008840F28F11884244
:1013100002D100201A4908801A48008840F28F1133
:10132000884202D100201749088014480088401CD8
:101330001249088012480088401C11490880114851
:101340000088401C0F4908800121880702F0DEF95F
:1013500070BD000064010020980100209C01002065
:1013600000080140002C014088010020900100206D
:101370008C01002094010020B0680008800100204A
:10138000820100208401002000B585B001210420E5
:1013900000F0BCFF0121480700F0C5FF1020ADF8A8
:1013A000100000208DF8130003208DF8120004A90E
:1013B0001D4800F0EFFC00200090019002900220F8
:1013C00003906946002002F0B0F90121002002F0EC
:1013D000C9F905B000BD2DE9F0470446204604F0E8
:1013E00043FB81461149484604F05CFA81464FF0C0
:1013F0008B41484604F04CFB824604F0C5F9074691
:101400004FF066320A4B03F06BFE054603F08EFD8B
:101410008146484604F008FB85B22946002002F0C8
:1014200002FABDE8F08700000008014000007A449D
:1014300066660A4010B56FF0040000F02CFC2E48E0
:1014400000682E49B0FBF1F02D490870084600787D
:1014500000EB4001C1EBC0104FF6FF7101EAC00084
:101460002849088010BD0146254A12784A434FF0AA
:10147000E0235A6100229A611A46126942F0010281
:101480001A6100BF4FF0E022106900F001021AB1AA
:1014900000F48032002AF5D04FF0E022126922F0E9
:1014A00001024FF0E0231A6100229A617047014661
:1014B000144A12884A434FF0E0235A6100229A618D
:1014C0001A46126942F001021A6100BF4FF0E02291
:1014D000106900F001021AB100F48032002AF5D040
:1014E0004FF0E022126922F001024FF0E0231A616E
:1014F00000229A61704700006401002000127A0007
:10150000A0010020A201002000BF704700BF4A4A8E
:10151000128802F04002002AF9D0C2B2464B1B1DCD
:101520001A80704710B586B00446012144F20400C9
:1015300000F0ECFE4FF40070ADF8140003208DF8BD
:10154000160018208DF8170005A93C4800F022FC71
:101550004FF48060ADF8140004208DF8170005A941
:10156000364800F017FC25208DF8000003208DF888
:1015700001008DF8020001208DF80300684600F09C
:1015800040FB01940020ADF80800ADF80A00ADF86A
:101590000C00ADF810000C20ADF80E0001A9264893
:1015A00000F05BFF012240F22551234800F0EDFFDF
:1015B0000121214800F0DDFF06B010BD10B540F25A
:1015C00025511D4801F0C6F810B31B4801F042F840
:1015D000C4B21B48008800F40040C8B9184800880D
:1015E00000F4804060B10A2C03D000201449088028
:1015F00020E01348008840F400401149088019E0B9
:101600000D2C06D10E48008840F480400C4908801B
:1016100010E00B480088C0F30D000A490C5408483C
:101620000088401C0649088008460088C72801DD5C
:101630000020088010BD0000003801400008014073
:10164000A80100208406002010B586B004460121C0
:10165000042000F05BFE0121480400F064FE3E48D7
:1016600000F0B8FE0420ADF8100003208DF8120041
:1016700018208DF8130004A9384800F08BFB0820CF
:10168000ADF8100004208DF8130004A9334800F0D1
:1016900081FB00940020ADF80400ADF80600ADF821
:1016A0000800ADF80C000C20ADF80A0069462A4885
:1016B00000F0D3FE0121284800F05BFF012240F238
:1016C0002551254800F061FF26208DF814000220E6
:1016D0008DF8150003208DF8160001208DF81700F5
:1016E00005A800F08EFA06B010BD0FB438B505A8F5
:1016F00000901B48009A049902F0D4F80020009052
:10170000174802F02DFA85B200240DE000BF4021F9
:10171000114801F009F80028F9D01148015D0E4880
:1017200000F094FF601C84B2AC42EFDB38BC5DF883
:1017300014FB10B540F22551074801F00BF848B1F1
:10174000054800F087FFC4B224B1214605A002F08D
:10175000BBF8002410BD0000004400400008014018
:10176000A40900202563000010B540F22551E0488F
:1017700000F0F0FFB0B140F22551DD4801F014F85F
:10178000DB4800F067FFC4B2DA480088B0F5967F06
:1017900008DAD948D74909884454D6480088401CFB
:1017A000D449088040F22441D14800F0D3FF0128F9
:1017B00007D00120D149086040F22441CC4800F014
:1017C000F3FFCB480088CA48001D008810BD10B543
:1017D0000246514000230BE001F001044908C1F327
:1017E0000E0114B14AF20100414089B2581CC3B243
:1017F000082BF1DB084610BD2DE9F04305460E46E7
:101800004FF6FF744FF0000907E028782146FFF7F4
:10181000DEFF04466D1C09F10109B145F5D3E7B2BD
:10182000C4F3072848EA07242046BDE8F08308B53A
:10183000B348006801281CD10020B1490860B148B4
:101840000078B14908700320487000208870482053
:10185000C87000200871082048710621AA48FFF7C7
:10186000CBFF00909DF80100A74988719DF800000A
:10187000C8710020A549086020E000BF40219C48B5
:1018800000F052FF0028F9D09F48A04A1268815CFE
:10189000974800F0DBFE00BF40219D4800F044FF68
:1018A0000028F9D09848994A1268815C984800F05D
:1018B000CDFE96480068401C944908609348006833
:1018C000944909688842D8DB08BDF8B58B480068A0
:1018D00001287DD190A001F0F7FF86480088964945
:1018E000086000208549086083480078012803D0FB
:1018F000814800780028ECD190A001F0E5FF8E48E7
:101900000078801EC1B27C48FFF776FF00909DF8FA
:10191000001089480068401E774A105C814278D1E7
:101920009DF8011084480068801E105C814270D1CF
:101930007048018886A001F0C7FF6F48C078000694
:101940006D49097940EA01406B49497940EA012033
:1019500069498979084380490860084601687FA081
:1019600001F0B2FF6448C07900066349097A40EA91
:1019700001406149497A40EA01205F49897A084378
:101980007A4908600846016879A001F09DFF5A482D
:10199000C07A00065849097B40EA01405649497B14
:1019A00040EA01205449897B08437549086008468C
:1019B000016874A001F088FF4F48C07C00064E49C2
:1019C000097D40EA01404C49497D40EA012000E0A0
:1019D0001FE04949897D08436D4908600846006851
:1019E00003F0D6FC06466B4A6B4B03F0E5FC04465D
:1019F00003F09CFA694908600846006803F0C4FED9
:101A0000044622460B4666A001F05EFF00203949DD
:101A10000880F8BD00203F49086009E000203649F1
:101A20003C4A126888543B480068401C39490860A9
:101A3000384800682528F1DB704710B586B00446A9
:101A40000121082000F062FC0121880400F06BFCF9
:101A5000274800F0BFFC4FF48060ADF81000032071
:101A60008DF8120018208DF8130004A9514800F0D9
:101A700091F94FF40060ADF8100004208DF81300C8
:101A800004A94C4800F086F900940020ADF8040049
:101A9000ADF80600ADF80800ADF80C000C20ADF86C
:101AA0000A006946124800F0D8FC27208DF814007F
:101AB00000208DF8150002208DF8160001208DF809
:101AC000170005A800F09DF8FFF7A4FF012240F2DF
:101AD0002551074800F059FD012240F224410448F5
:101AE00000F053FD0121024800F043FD06B010BD97
:101AF00000480040EC010020540E0020D8010020D6
:101B0000E4010020CC010020CD010020E0010020F4
:101B100000380140DC0100200D0A726563656976BA
:101B2000655F66696E6973686564B1EAD6BECEBBEF
:101B3000CEAA310D0A000000E80100200D0A20C8DD
:101B4000B7C8CF20494420D5FDC8B70D0A00000012
:101B50000D0A25640D0A0000AC0100200D0AB5E74E
:101B6000D1B9D6B53A256C750D0A0000B001002038
:101B70000D0AB5E7C1F73A256C750D0A00000000A3
:101B8000B4010020B9A6C2CA3A256C750D0A00003E
:101B9000BC010020FCA9F1D24D62503FC8010020D9
:101BA000B9A6C2CAD2F2CAFD3A252E336C660D0A16
:101BB00000000000000C0140094880470948004728
:101BC000FEE7FEE7FEE7FEE7FEE7FEE7FEE7FEE7ED
:101BD000FEE7FEE704480549054A064B704700004A
:101BE0003B07000831010008080F002008150020FD
:101BF000081100200811002031490143314A1160C9
:101C0000704770B5002100230F22C47804B32D4C17
:101C1000246804F4E064C4F5E064210AC1F104031B
:101C2000CA40447804FA03F184781440214309013E
:101C3000254C0678A155047804F01F050124AC401A
:101C400005786D11AD0005F1E025C5F8004109E00A
:101C5000047804F01F050124AC401C4D0678761171
:101C600045F8264070BD1A4A0A400243154B1B1F17
:101C70001A60704739B1134A121D12680243114BA2
:101C80001B1D1A6006E00F4A121D126882430D4B9D
:101C90001B1D1A607047042808D14FF0E021096924
:101CA00041F004014FF0E022116107E04FF0E02124
:101CB000096921F004014FF0E02211617047000032
:101CC0000000FA050CED00E000E400E080E100E037
:101CD00080FFFF1F10B50446CC48844208D1012183
:101CE000042000F02DFB0021042000F029FB46E039
:101CF000C748844208D10121082000F021FB0021BF
:101D0000082000F01DFB3AE0C248844208D10121BE
:101D1000102000F015FB0021102000F011FB2EE038
:101D2000BD48844208D10121202000F009FB002198
:101D3000202000F005FB22E0B848844208D10121B0
:101D4000402000F0FDFA0021402000F0F9FA16E0F2
:101D5000B348844208D10121802000F0F1FA00212B
:101D6000802000F0EDFA0AE0AE48844207D101215C
:101D7000801500F0E5FA0021A01500F0E1FA10BD91
:101D800010B50121084600F0DBFA0021012000F027
:101D9000D7FA10BD2DE9F0410246002500260020AB
:101DA00000230024002791F803C00CF00F0591F8E0
:101DB00003C00CF0100CBCF1000F03D091F802C06E
:101DC0004CEA050591F800C0BCF1000F31D0146851
:101DD00000202BE04FF0010C0CFA00F3B1F800C02A
:101DE0000CEA03069E4220D183004FF00F0C0CFA40
:101DF00003F7BC4305FA03FC4CEA040491F803C062
:101E0000BCF1280F06D14FF0010C0CFA00FCC2F80F
:101E100014C00AE091F803C0BCF1480F05D14FF09F
:101E2000010C0CFA00FCC2F810C0401C0828D1D3E9
:101E30001460B1F800C0BCF1FF0F34DD546800201D
:101E40002EE000F1080C4FF0010808FA0CF3B1F88D
:101E500000C00CEA03069E4221D183004FF00F0C14
:101E60000CFA03F7BC4305FA03FC4CEA040491F8AE
:101E700003C0BCF1280F05D100F1080C08FA0CF8DA
:101E8000C2F8148091F803C0BCF1480F07D100F1EB
:101E9000080C4FF0010808FA0CF8C2F81080401C3A
:101EA0000828CED35460BDE8F0814FF6FF71018061
:101EB000022181700421C17070470246002093689E
:101EC0000B400BB1012000E00020704701468868FC
:101ED00080B2704702460020D3680B400BB101204E
:101EE00000E0002070470146C86880B27047016179
:101EF0007047416170470AB1016100E0416170477C
:101F0000C16070474FF480320A438261816182610F
:101F100082698269704702460020434B18684FF679
:101F20008073184040EA021008433F4B1860704726
:101F30003E49C8617047F0B50A46002300240021DD
:101F4000002500F00046B6F1004F02D1364EF1698F
:101F500001E0354E7168C0F3034583B200F44016CA
:101F6000B6F5401F08D121F070612F4E766826F03B
:101F700070662D4F7E6012E000F48016B6F5801F6B
:101F800006D1032606FA05F4A14341F0706106E08C
:101F9000460D360103FA06F6B14341F0706122B1F5
:101FA000460D360103FA06F6314300F00046B6F15D
:101FB000004F02D11C4EF16101E01B4E7160F0BD7B
:101FC00030B500228B071C0F0F2303FA04F2164BC7
:101FD00008338C1053F824309343134C08348D107D
:101FE00044F8253023468C1053F824308C07240FF6
:101FF00000FA04F423430C4C08348D1044F82530C7
:1020000030BD0A49DC31086070470000000801401B
:10201000000C014000100140001401400018014074
:10202000001C01400020014000000140000020424F
:10203000DF48006840F00100DD490860084640685C
:10204000DC490840DA49486008460068DA49084037
:10205000D74908600846006820F4802008600846D8
:10206000406820F4FE0048604FF41F00886070470D
:10207000CF49096821F48031CD4A116011460968C1
:1020800021F480211160B0F5803F03D0B0F5802F9E
:102090000ED106E0C649096841F48031C44A116096
:1020A00007E0C349096841F4A021C14A116000E07A
:1020B00000BF00BF704710B501460022002300207A
:1020C0004A11012A02D1BA4C236806E0022A02D141
:1020D000B74C236A01E0B64C636A01F01F02012489
:1020E00094401C400CB1012000E0002010BD38B528
:1020F000002000900024002500BF3120FFF7DBFF07
:1021000005460098401C00900098B0F5A06F01D0E3
:10211000002DF2D03120FFF7CEFF08B1012400E0FE
:102120000024204638BD01460020A14A106820F056
:10213000F80040EAC10010607047A049086070478D
:10214000024600209A4B586820F47C1042EA0103B2
:102150001843974B58607047984908667047014686
:102160000020934A506820F00300084350607047F5
:102170008F48406800F00C007047014600208C4AF0
:10218000506820F0F000084350607047014600207E
:10219000874A506820F4E060084350607047014669
:1021A0000020834A506820F4605040EAC10050602B
:1021B000704729B17E4A527A02437D4B5A7204E03D
:1021C0007B4A527A82437A4B5A7270477B49D831A4
:1021D0000860704701460020754A506820F440406E
:1021E0000843506070470021714A20321170704AD4
:1021F00082F82010012802D004280AD104E001212D
:102200006B4A2032117005E00521694A20321170B5
:1022100000E000BF00BF704769490860704764492B
:10222000096A0143624A116270476549443908608E
:10223000704730B500210022002400235C4D6D68FA
:1022400005F00C0121B1042905D0082923D105E0AE
:102250005C4D056022E05B4D05601FE0544D6D68EC
:1022600005F47012524D6D6805F48034022505EBBB
:1022700092421CB9544D554305600BE04C4D6D68BE
:1022800005F400351DB1504D5543056002E04D4D3C
:102290005543056002E04B4D056000BF00BF444D53
:1022A0006D6805F0F0010909484D6B5C0568DD407B
:1022B00045603F4D6D6805F4E061090A434D6B5C74
:1022C0004568DD4085603A4D6D6805F46051C90A86
:1022D0003E4D6B5C4568DD40C560354D6D6805F46D
:1022E0004041890B3A4D6B5CC568B5FBF3F5056160
:1022F00030BD29B12E4A526902432D4B5A6104E088
:102300002B4A526982432A4B5A61704729B1284AA5
:1023100092690243264B9A6104E0254A92698243FE
:10232000234B9A61704729B1214AD2690243204B5D
:10233000DA6104E01E4AD26982431D4BDA617047BC
:1023400029B11B4AD2680243194BDA6004E0184AEB
:10235000D2688243164BDA60704729B1144A126979
:102360000243134B1A6104E0114A12698243104B75
:102370001A61704712494039086070470F49C864B4
:1023800070470B49C87170470948406A40F0807037
:1023900007494862704701460020054A92680A4092
:1023A0000AB1012000E0002070470149887270479F
:1023B000001002400000FFF8FFFFF6FE000042425E
:1023C0008004424200127A0000093D00EE01002024
:1023D000FE01002010B50446FB48844209D10121CA
:1023E0008803FFF7ADFF00214FF48040FFF7A8FFFF
:1023F00032E0F648844209D101214804FFF7ADFFDD
:1024000000214FF40030FFF7A8FF25E0F048844298
:1024100009D101218804FFF7A0FF00214FF480209B
:10242000FFF79BFF18E0EB48844209D10121C80463
:10243000FFF793FF00214FF40020FFF78EFF0BE022
:10244000E548844208D101210805FFF786FF0021F5
:102450004FF48010FFF781FF10BD2DE9F04786B0E3
:1024600005460E460024A24600BFA1460027B089BB
:1024700000B100BF2F462C8A4CF6FF700440F08854
:1024800004432C82AC894EF6F3100440B0883189A5
:102490000843718908430443AC81AC8A4FF6FF407E
:1024A0000440B0890443AC8201A8FFF7C2FEC648CD
:1024B000874202D1DDF810A001E0DDF80CA0A88968
:1024C00000F4004040B10AEBCA0000EB0A1031688A
:1024D0004900B0FBF1F807E00AEBCA0000EB0A1074
:1024E00031688900B0FBF1F86420B8FBF0F004011A
:1024F0002009642101FB1089A88900F4004040B143
:10250000322000EBC900B0FBF1F000F007000443FB
:1025100008E0322000EB09106421B0FBF1F000F07C
:102520000F0004432C8106B0BDE8F0874FF416512C
:10253000016000218180C18001810C214181002145
:102540008181704710B502460020108A4FF2FF03C8
:1025500018400B884C8823438C882343CC88234322
:102560001843108210BD0021018041808180C1800C
:10257000704721B1828942F40052828104E082894D
:102580004DF6FF731A4082817047F0B50346002470
:1025900000260025002040F66A17B94200D100BF8E
:1025A0001846C1F3421401F01F06012707FA06F589
:1025B000012C01D10C3004E0022C01D1103000E0DC
:1025C00014301AB107682F43076002E00768AF4371
:1025D0000760F0BD1AB1838A0B43838202E0838ACD
:1025E0008B4383827047028A4FF6F0731A4002824F
:1025F000028A0A430282704782894FF2FF731A40AF
:10260000828182890A438281704721B1828942F0A6
:102610000202828104E082894FF6FD731A408281B2
:102620007047028A4FF6DF731A400282028A0A4319
:102630000282704721B1028A42F48042028204E0A1
:10264000028A4BF6FF731A4002827047C1F30802F8
:102650008280704701468888C0F3080070478189EE
:1026600041F0010181817047028BD2B20283028B5B
:1026700042EA012202837047028B02F47F42028306
:10268000028B0A430283704721B1828A42F0200202
:10269000828204E0828A4FF6DF731A40828270479A
:1026A00021B1828A42F01002828204E0828A4FF6CF
:1026B000EF731A408282704721B1828A42F0080289
:1026C000828204E0828A4FF6F7731A408282704752
:1026D00021B1828942F40042828103E08289C2F3FF
:1026E0000E028281704721B1828A42F400628282A6
:1026F00004E0828A4FF2FF731A4082827047828A16
:102700004FF6FB731A408282828A0A4382827047A4
:1027100021B1828A42F00202828204E0828A4FF66C
:10272000FD731A408282704702460020B1F5007F97
:1027300000D100BF13880B400BB1012000E0002046
:10274000704701F40072B2F5007F00D100BFCA43A8
:102750000280704770B50246002400230025002047
:1027600040F66A16B14200D100BFC1F3421501F034
:102770001F03012606FA03F3012D02D19689334087
:1027800006E0022D02D1168A334001E0968A3340DA
:102790000C12012606FA04F41688344013B10CB169
:1027A000012000E0002070BD10B50022002340F69B
:1027B0006A14A14200D100BF0A1201249440A3B2BE
:1027C000DC43048010BD000000380140004400409C
:1027D00000480040004C00400050004000204449A8
:1027E0000860091D0860091D0860091D086041484E
:1027F0003F4914310860704700213D498279002A21
:102800003AD00A46126803689A430B461A600A1DBA
:10281000126803689A430B1D1A60027911440A6812
:1028200003681A430A60324A0832126803689A43FE
:102830002F4B08331A601A1D126803689A432C4BF9
:102840000C331A604279102A0ED11A1F12680368DD
:102850001A43274B08331A601A1D126803681A437B
:10286000234B0C331A600DE02149427911440A6868
:1028700003681A430A6005E0027911440A68036894
:102880009A430A6070470021016001710C21417177
:102890000021817170471649103109680143144ABB
:1028A00010321160704701460020114A143212683C
:1028B0000A400AB1012000E0002070470C491431A1
:1028C00008607047014600200022094B1B6803EA9C
:1028D0000102074B14331B680B4013B10AB10120EE
:1028E00000E0002070470249143108607047000082
:1028F00000040140FFFF0F0010B50446FE4884426B
:1029000008D10121C014FFF71BFD0021E014FFF7DF
:1029100017FDC4E0B4F1804F08D101210846FFF74C
:102920001CFD00210120FFF718FDB8E0F3488442A8
:1029300008D101210220FFF710FD00210220FFF73E
:102940000CFDACE0EE48844208D101210420FFF7E1
:1029500004FD00210420FFF700FDA0E0E9488442C7
:1029600008D101210820FFF7F8FC00210820FFF71B
:10297000F4FC94E0E448844208D101211020FFF7E0
:10298000ECFC00211020FFF7E8FC88E0DF488442DF
:1029900008D101212020FFF7E0FC00212020FFF7D3
:1029A000DCFC7CE0DA48844208D101214014FFF7C6
:1029B000C7FC00216014FFF7C3FC70E0D5488442D7
:1029C00009D10121C804FFF7BBFC00214FF400200E
:1029D000FFF7B6FC63E0D048844209D10121080525
:1029E000FFF7AEFC00214FF48010FFF7A9FC56E082
:1029F000CA48844209D101214805FFF7A1FC002102
:102A00004FF40010FFF79CFC49E0C548844208D110
:102A100001214020FFF7A1FC00214020FFF79DFC91
:102A20003DE0C048844208D101218020FFF795FC99
:102A300000218020FFF791FC31E0BB48844208D19F
:102A400001218015FFF789FC0021A015FFF785FC07
:102A500025E0B648844209D101210804FFF770FC43
:102A600000214FF48030FFF76BFC18E0B04884423F
:102A700009D101214804FFF763FC00214FF4003025
:102A8000FFF75EFC0BE0AB48844208D101218804CB
:102A9000FFF756FC00214FF48020FFF751FC10BDDA
:102AA00000220288944B98420ED0994B98420BD04A
:102AB000B0F1804F08D0914B984205D0904B98428E
:102AC00002D0904B984204D14FF68F731A404B8836
:102AD0001A438D4B984207D08C4B984204D04FF646
:102AE000FF431A40CB881A4302808B8883850B886A
:102AF0000385814B98420BD0854B984208D08B4B75
:102B0000984205D08A4B984202D08A4B984201D114
:102B10000B7A038601238382704770B5002400225C
:102B20000023058C4FF6FE7635400584028C8388A1
:102B3000048B4FF68F752C40B51E2C400D882C430E
:102B4000751E2A400D892A434D882A436A4DA842A2
:102B50000BD06F4DA84208D0744DA84205D0744DDB
:102B6000A84202D0734DA84213D14FF6F7752A4000
:102B70004D892A434FF6FB752A408D882A434FF62C
:102B8000FF652B404FF6FF552B408D892B43CD8998
:102B90002B4383800483CD888586028470BD70B505
:102BA000002400220023058C4FF6EF763540058483
:102BB000028C8388048B48F6FF752C404FF6FF4546
:102BC0002C400D884FF6FF7606EA05252C434FF67C
:102BD000DF752A400D8906EA05152A434D8806EA65
:102BE00005152A43444DA84202D0494DA8421DD1A3
:102BF0004FF67F752A404D894FF6FF7606EA051598
:102C00002A434FF6BF752A408D8806EA05152A43E8
:102C10004FF6FF352B404FF2FF752B408D8906EAAA
:102C200085052B43CD8906EA85052B4383800483E4
:102C3000CD880587028470BD70B500240022002372
:102C4000058C4FF6FF6635400584028C8388848BA3
:102C50004FF68F752C404FF6FC752C400D882C4399
:102C60004FF6FF552A400D894FF6FF7606EA0525F7
:102C70002A434D8806EA05252A431F4DA84202D063
:102C8000234DA8421DD14FF2FF752A404D894FF6C2
:102C9000FF7606EA05252A434FF6FF352A408D8840
:102CA00006EA05252A434EF6FF752B404DF6FF75C3
:102CB0002B408D8906EA05152B43CD8906EA0515BB
:102CC0002B4383808483CD888587028470BD70B553
:102CD000002200230024058C4EF6FF763540058443
:102CE000038C8488828B48F6FF752A404FF6FF4597
:102CF0002A400D8820E00000002C01400004004024
:102D000000080040000C004000100040001400408B
:102D100000340140004C014000500140005401408B
:102D200000180040001C004000200040004001400E
:102D300000440140004801404FF6FF7606EA0525B1
:102D40002A434DF6FF752B400D8906EA05352B43C6
:102D50004D8806EA05352B43FA4DA84202D0FA4DBC
:102D6000A84208D14BF6FF752C408D894FF6FF76AF
:102D700006EA85152C4384808283CD88A0F84050D4
:102D8000038470BD828B4FF2FF331A408283828BA3
:102D90004FF6FF7303EA01231A4382837047F0B5AD
:102DA0000C461546002200210026078C4EF6FF7CBB
:102DB00007EA0C070784828B018C4FF6FF7707EA3E
:102DC000043640F6FF473A404FF6FF7707EA0527FB
:102DD0003A434FF6FF7707EA03373A43D94FB842F1
:102DE0000ED0D94FB8420BD0B0F1804F08D0D74F9A
:102DF000B84205D0D64FB84202D0D64FB84206D11D
:102E00004DF6FF77394046F48057394305E047F6E1
:102E1000FF57394044F48057394382830184F0BD21
:102E2000828B4FF6F3731A408283828B0A4382832C
:102E30007047F0B50C461546002200210026078C8D
:102E40004FF6FF6C07EA0C070784828B018C4FF664
:102E5000FF7707EA04264FF60C773A404FF6FF77E4
:102E600007EA03172F433A43B64FB8420ED0B64F86
:102E7000B8420BD0B0F1804F08D0B44FB84205D063
:102E8000B34FB84202D0B34FB84206D14FF6FF5706
:102E9000394046F48077394305E04FF2FF57394017
:102EA00044F48077394382830184F0BD028B4FF272
:102EB000FF331A400283028B4FF6FF7303EA0123AC
:102EC0001A4302837047F0B50C46154600220021D4
:102ED0000026078C4FF6EF7C07EA0C070784028B6D
:102EE000018C4FF6FF7707EA041640F6FF473A4099
:102EF0004FF6FF7707EA03373A434FF6FF7707EAC3
:102F000005273A438F4FB8420ED08F4FB8420BD0AF
:102F1000B0F1804F08D08D4FB84205D08C4FB842E9
:102F200002D08C4FB84206D14FF6DF77394046F0D9
:102F30001007394305E04FF65F77394044F010073A
:102F4000394302830184F0BD028B4FF6F3731A40BC
:102F50000283028B0A4302837047F0B50C46154684
:102F600000220021068C4FF6FE773E400684028B3D
:102F7000018C4FF60C7632407E1C06EA03162E4377
:102F80003243704EB0420ED06F4EB0420BD0B0F113
:102F9000804F08D06D4EB04205D06D4EB04202D089
:102FA0006C4EB04206D14FF6FD76314044F001063A
:102FB000314305E04FF6F576314044F001063143E8
:102FC00002830184F0BD70B505460C465D4885421C
:102FD0000ED05D4885420BD0B5F1804F08D05B48DC
:102FE000854205D05A48854202D05A48854200D1D0
:102FF00000E000BF208850B92389A2886188284654
:10300000FFF7ABFFE1882846FFF79EFF25E0208809
:1030100004280AD12389A28861882846FFF753FF34
:10302000E1882846FFF742FF17E0208808280AD1E8
:103030002389A28861882846FFF7FBFEE18828469D
:10304000FFF7EEFE09E02389A28861882846FFF792
:10305000A6FEE1882846FFF795FE70BD2DE9F041F8
:1030600005460C4600260127608808B9022600E0C4
:103070000026A088012801D1022700E0012720882E
:10308000A0B92389A28861882846FFF766FFE188F6
:103090002846FFF759FF23893A4631462846FFF76D
:1030A00012FFE1882846FFF701FF13E02389A28879
:1030B00061882846FFF707FFE1882846FFF7F6FEFC
:1030C00023893A4631462846FFF747FFE1882846DC
:1030D000FFF73AFFBDE8F0810A884B881A438B88D6
:1030E0001A43CB881A430B891A434B891A438B899D
:1030F0001A43A0F8442070474FF6FF7181800021E9
:103100000180C180418001727047002101804180AF
:103110008180C180018141818181C181704700210D
:1031200001804180012181800021C180018170479F
:103130000021018041808180C180018141818181A4
:1031400070470000002C01400034014000040040A2
:1031500000080040000C004021B1028842F001024A
:10316000028004E002884FF6FE731A400280704726
:1031700031B1B0F8442042F40042A0F8442005E008
:10318000B0F84420C2F30E02A0F8442070471AB1F0
:1031900083890B43838102E083898B43838170475A
:1031A0008182704741EA0203A0F8483070471AB1A3
:1031B00083890B43838102E083898B43838170473A
:1031C00001894FF6F8721140018170470A460021CB
:1031D00001894FF68F73194011430181704730B553
:1031E00004460D4629462046FFF7F0FF208940F0AF
:1031F0000700208130BD2DE9F04104460D461646FA
:103200001F46602D06D13B46012231462046FFF77E
:103210005AFE05E03B46012231462046FFF79DFE5F
:1032200029462046FFF7D2FF208940F00700208181
:10323000BDE8F08130B50C4600210189C9B24FF6D6
:10324000FF7505EA0325154325432943018130BD58
:103250002DE9F04105460E461746984600244346A0
:103260003A4631462846FFF7E5FF2C894FF6F870BD
:10327000044044F007044FF68F70044044F070049B
:103280002C81BDE8F081F0B504460D4616461F4678
:103290003B46324629462046FFF7CCFF208940F4C2
:1032A00080402081F0BD0185828270470A4600215E
:1032B00001884FF68F731940114301807047F0B5B4
:1032C0000C4615461E460021002200230189028B70
:1032D000038C4FF6F877394021434FF6FC473A40CC
:1032E00040F201173A434FF6DD773B404FF6FF7748
:1032F00007EA06172F433B43018102830384F0BD95
:103300000A460021018B4FF68F7319401143018348
:1033100070470A460021018B48F6FF7319404FF6AB
:10332000FF7303EA02231943018370470A46002111
:10333000818B4FF68F7319401143818370470A4682
:103340000021818B48F6FF7319404FF6FF7303EAA3
:10335000022319438183704721B1028842F0800221
:10336000028004E002884FF67F731A4002807047A3
:1033700021B1828842F00402828004E082884FF604
:10338000FB731A408280704721B1828842F00802A4
:10339000828004E082884FF6F7731A40828070477B
:1033A00021B1828842F00102828004E082884FF6D7
:1033B000FE731A40828070470A460021018B4FF647
:1033C000F77319401143018370470A460021018BAE
:1033D0004FF2FF7319404FF6FF7303EA02231943BC
:1033E000018370470A460021818B4FF6F77319401D
:1033F0001143818370470A460021818B4FF2FF738E
:1034000019404FF6FF7303EA022319438183704783
:103410000A460021018B4FF6FB73194011430183CB
:1034200070470A460021018B4FF6FF3319404FF6D3
:10343000FF7303EA02231943018370470A46002100
:10344000818B4FF6FB7319401143818370470A4605
:103450000021818B4FF6FF3319404FF6FF7303EACB
:1034600002231943818370470A460021018B4FF6DE
:103470007F7319401143018370470A460021018B75
:10348000C1F30E014FF6FF7303EA022319430183D0
:1034900070470A460021818B4FF67F731940114314
:1034A000818370470A460021818BC1F30E014FF6DC
:1034B000FF7303EA02231943818370470A46002100
:1034C000018C4FF6FD7319401143018470470A4681
:1034D0000021018C4FF6F7731940114301847047A6
:1034E0000A460021018C4FF6DF7319404FF6FF7337
:1034F00003EA02131943018470470A460021018C34
:103500004FF67F7319404FF6FF7303EA0213194316
:10351000018470470A460021018C4FF6FF53194081
:103520004FF6FF7303EA02231943018470470A46EA
:103530000021018C4FF2FF7319404FF6FF7303EA2D
:1035400002231943018470470A460021018C4DF67D
:10355000FF7319404FF6FF7303EA023319430184E6
:10356000704730B5002301248C40A3B2048C9C43E7
:103570000484048C02FA01F5ADB22C43048430BDFE
:1035800030B5002304248C40A3B2048C9C430484F3
:10359000048C02FA01F5ADB22C43048430BD70B541
:1035A0000346002000241846183001258D40ACB297
:1035B0001D8CA5431D8409B1082909D100EB6100C8
:1035C000056825F0700505600568154305600EE087
:1035D0000D1FC5F34E052844056825F4E045056038
:1035E00005684FF6FF7606EA02263543056070BD92
:1035F00021B1028842F00202028004E002884FF604
:10360000FD731A400280704721B1028842F0040223
:10361000028004E002884FF6FB731A400280704774
:1036200021B1828842F08002828004E082884FF6D5
:103630007F731A408280704702884FF6F7731A40F2
:10364000028002880A430280704782884FF68F7397
:103650001A40828082880A438280704702894FF62E
:10366000F8731A40028102890A4302817047028975
:103670004FF67F731A40028102890A430281704724
:1036800081847047818570478186704701877047C4
:1036900081877047A0F84010704702884FF6FF43BB
:1036A0001A40028002880A43028070470146888ED1
:1036B00070470146088F70470146888F7047014662
:1036C000B1F8400070470146888C70470146088D6C
:1036D000704702460020138A0B400BB1012000E026
:1036E00000207047CA430282704730B5024600206E
:1036F00000230024158A05EA0103958905EA0104DF
:1037000013B10CB1012000E0002030BDCA43028299
:103710007047000010B501214807FEF71EFE00218A
:103720004FF00050FEF719FE10BD30B50022002307
:103730005A4C226840F6FE748440A243D1E9004509
:103740002C438D682C43CD6844EA050303FA00F44A
:103750002243524C226030BD0021016041608160F3
:10376000C160704739B14D4A1268012383401A4342
:103770004A4B1A6006E0494A1268012383409A4383
:10378000464B1A60704741B1444A12684FF4805367
:1037900083401A43414B1A6007E0404A12684FF4D5
:1037A000805383409A433D4B1A60704710B551B126
:1037B0003A4A121D126804090123A3401A43374BE9
:1037C0001B1D1A6009E0354A121D12680409012305
:1037D000A3409A43314B1B1D1A6010BD40B12F49C5
:1037E000091D096841F003012C4A121D116007E010
:1037F0002A49091D096821F00301284A121D116098
:10380000704710B53AB1254B1B6801FA00F4234309
:10381000224C236006E0214B1B6801FA00F4A3430D
:103820001E4C236010BD08B5002200921B4A009276
:1038300000F10802009B1A440092009A116008BD32
:1038400008B500220092154A009200F11402009B74
:103850001A440092009A116008BD30B5002400237C
:10386000082802D142EA012401E042EA01440B4B5C
:1038700000F120052B441C6030BD08B50146002036
:103880000090064800902C2000EB9100009A104414
:1038900000900098006880B208BD000000740040ED
:1038A000704700001CB50C46064B7B4469460090EF
:1038B000204600F030FC04460020694600F03EFC43
:1038C00020461CBD8F0800000FB4044910B503AAA0
:1038D000029800F04FFC10BC5DF814FBA40100201E
:1038E0000FB41CB5084B06AA7B44694600900598A6
:1038F00000F011FC04460020694600F01FFC204641
:103900001CBC5DF814FB00005108000070B50C46AB
:103910000546012A05D02878800600D5EA690023EB
:1039200002E0012305E05B1C934202D2E05C002828
:10393000F9D1A869E618C01AA861286A1844286253
:10394000284600F030F904E0D5E9012114F8010B14
:103950009047B442F8D3284600F03BF970BD000010
:103960002DE9F0410646002410687529314616A558
:1039700010D000F03FF9002802DA404213A507E01A
:1039800031688A0701D512A502E0490704D511A5BF
:10399000012401E000F037F900210A2206F1240792
:1039A00009E0B0FBF2FCB0FBF2F302FB1C0030308C
:1039B00078541846491C0028F3D123462A4630463D
:1039C000BDE8F04100F028B9000000002D00000023
:1039D0002B000000200000002DE9F05F894604461E
:1039E0004FF0000ADFF874B1FB44C0F820A0204675
:1039F000E1688847002874D0252806D0D4E9012141
:103A00009047206A401C2062F1E700265F4620466E
:103A1000E16888472028054607DB312D05D2781953
:103A200010F8200C08B10643F1E7B00701D526F0E5
:103A30000406C4F81CA00027C4F818A02A2D09D039
:103A4000284601F040FA38B304EB8708303DC8F847
:103A5000185019E059F8041B204604EB87029161C5
:103A6000E1688847012F054618D1E069002820DA6F
:103A700026F020061DE0D8F8180000EB800005EBCA
:103A800040003038C8F818002046E16888470546ED
:103A900001F019FA0028EED1012F0AD02E2D08D1FD
:103AA0002046E16888477F1C0546022F46F0200625
:103AB000C4DBA069002803DA404246F00106A06199
:103AC000F00701D026F010066C2D0BD0682D09D020
:103AD0004C2D39D06A2D35D0742D35D07A2D33D078
:103AE00016E038E0E1682F4620468847B842054690
:103AF00009D16C2F26D04FF48060E1680643204640
:103B00008847054604E06C2F1AD04FF480700643B6
:103B10000DB3A5F14100192802D8203546F40066FE
:103B20004A462946204626604E46FCF75BFB80B19C
:103B300001280BD0F61D26F0070000F1080956E712
:103B40004020E4E78020D8E70020D6E706F104090A
:103B50004DE7284652E7206ABDE8F09F0435000093
:103B600010B5431C02E010F8011B71B18107FAD1B6
:103B70004FF0013202C88C1A8C4314EAC211F9D0FA
:103B8000C01A0A0603D0C01E10BDC01A10BD0A0418
:103B900001D0801E10BD0902FCD0401E10BD704730
:103BA00070477047704770B5044685690068C10664
:103BB00001D5302600E02026C00707D070BDD4E92B
:103BC000012130469047206A401C20626D1EF6D5C8
:103BD00070BD70B5044685690078C00707D170BD17
:103BE000D4E9012120209047206A401C20626D1EEC
:103BF000F6D570BD09684A0501D540B27047C905C0
:103C0000FCD500B2704709684A0501D5C0B27047BB
:103C1000C905FCD580B270472DE9F0470D4699469D
:103C20009246044600F124080168880604D5E0693C
:103C300021F01001216000E00120A84201DD471BB6
:103C400000E00027A1697A1902EB0900081AA061B7
:103C50002078C00602D42046FFF7A5FF002608E022
:103C6000D4E901211AF806009047206A401C761C0E
:103C700020624E45F4DB2078C0060AD52046FFF7C7
:103C800092FF06E0D4E9012130209047206A401CD1
:103C90002062381EA7F10107F4DC07E0D4E9012116
:103CA00018F805009047206A401C2062281EA5F1E4
:103CB0000105F3DC2046FFF78CFF2078000602D5D3
:103CC0000220BDE8F0870120FBE711680268006A66
:103CD000530501D508700AE0D30501D5088006E038
:103CE000130603D5C217C1E9000200E008600120F5
:103CF000704770472DE9FF4F0C461E464FF0FF37C7
:103D00008BB0D2E90001DDF860800A908A46C1F3E9
:103D10000A5505B93D46002108464FF00000BAF1AA
:103D2000000F00F4400005DA00EB80004FF4400182
:103D300001EA50004FEA9059B9F1010F00DDB94690
:103D40000A9850EA4A000ED044F61050A5F2FF350A
:103D500045432F14B8F1000F1ED07542291E1EDDF9
:103D6000C9F100021CE0B8F1010F4FF0000001D0D2
:103D7000302103E0F24305E02154401CB042FBDB5C
:103D800030460022002121540B99C1F80880C1E976
:103D900000200FB0BDE8F08FBD1B6D1CDEE74A466A
:103DA00000DA694206A800F0B5FB06AB93E807000D
:103DB00003AB83E8070050460A9900F0B5FC8DE894
:103DC0000700A0F500501F3800900398002D09DD72
:103DD00042F21F014A46084403A90390684600F0D6
:103DE00014FF08E0A0F500504A461F3803A90390CD
:103DF000684600F01EFF8DE807000004000C03D0A9
:103E00004FF0FF30410800E01046B8F1000F03D03A
:103E10000022009215461EE0751E05D400F0DEFA61
:103E2000303262556D1EF9D5B3460122084302D0E7
:103E300000227F1C04E02078302801D100227F1E60
:103E4000002A099786D01DE0112D07DA00F0C6FA86
:103E5000303262556D1C50EA0102F5D1084302D0A0
:103E60000098C8B10EE00021681E05E0235C625C8A
:103E700063542254401E491C8142F7DBAB46A81B09
:103E8000401E0990002004F80B000B98099AC0F816
:103E90000880C0E9002B7CE711264FF0000859E7A5
:103EA0002DE9F04F88460446D21D22F0070191B05B
:103EB000D1E90001CDE90A0100F0F1FF02460B98BB
:103EC000C00F01D02D2007E02068810701D52B20ED
:103ED00002E0202101EAC000032A099001D0072A4C
:103EE00005DB03464146204600F0BEFA0BE1207890
:103EF000800601D5E06900E00620B8F1650F814633
:103F000006D0B8F1660F18D0B8F1670F70D131E064
:103F10000020B9F1110F009001DB112301E009F13C
:103F200001030AAA01A90CA8FFF7E4FEDDE90C7061
:103F3000002609F10105834647E001204B46009029
:103F40004FF000470AAA01A90CA8FFF7D3FEDDE94C
:103F50000DB00C995D46002610B909F101000D184D
:103F6000B9EB050003D4C0F1FF3609F10105A5EB5B
:103F700009002BE0B9F1010F01DA4FF0010900202F
:103F8000B9F1110F0090484601DD112300E003460E
:103F90000AAA01A90CA8FFF7ADFEDDE90C704D4699
:103FA00000268346207800070AD4AB4500DA5D4638
:103FB00001A8012D04DD411911F8011C302907D099
:103FC0004F4502DA17F1040F04DA012082460FE0B0
:103FD0006D1EEEE7002F02DCED1B3E4403E0781C73
:103FE000A84200DD7D1CB81B00F1010A4FF000471C
:103FF0002078000703D4AA4501DB4FF0FF3A0021E7
:10400000B7F1004F0DF143088DF8431024D0022082
:104010002B23002F01DA7F422D230A21021EA0F15B
:10402000010000DC5FB197FBF1FC97FBF1F201FBB3
:104030001C7C17460CF1300C08F801CDEEE7A8F116
:10404000010003702188090501D5452100E06521A3
:10405000A0F1010800F8011C09980FA9A1EB0807BD
:10406000FF1D00B10120411901EBEA70A16938443C
:10407000081A401EA0612078C00602D42046FFF72F
:1040800092FD099828B1D4E901219047206A401C8B
:1040900020622078C00622D52046FFF784FD1EE06E
:1040A000002E04DBB34502DD01A8805D00E0302076
:1040B000D4E901219047206A401C2062761CAAF1B5
:1040C00001005FEA000A0AD100F084F9C0680168C3
:1040D000405CD4E901219047206A401C2062281EE0
:1040E000A5F10105DCDC07E0D4E9012118F8010B9A
:1040F0009047206A401C2062381EA7F10107F3DCBC
:104100002046FFF766FD032011B043E601694A1C13
:1041100002610878704700B58FB0CDE90131002108
:10412000059105497944CDE9031011466846FFF72A
:1041300053FC0FB000BD0000E5FFFFFF0A6802F866
:10414000010B0A60704710B5436913B1AFF30080EB
:1041500001E0FFF7DBFB012010BD127800F1240124
:104160000A7000224A700122EDE711684FF0FF3219
:10417000E9E70000074B70B50D467B44FFF7CBFF26
:104180000446284600F034FA10B14FF0FF3070BDFD
:10419000204670BD8FD3FFFF2DE9FF5F15468A468D
:1041A0000446DFF8AC80F8440027D8E900103E460A
:1041B000CDE9001010E03AF816106A4602A800F0A7
:1041C0001BFA411C07D02178890603D5E26939180A
:1041D00091420DD80744761C2078800602D5E0690C
:1041E000B84205DDAE42E6DB3AF816000028E2D11F
:1041F000A069C01BA0612046FFF7D5FCD8E90010DC
:10420000CDE90010002017E03AF818106A4602A81D
:1042100000F0F2F9B0F1FF3F81460BD000250DF11F
:10422000080B05E0D4E901211BF8050090476D1C3F
:104230004D45F7D308F10100B0428046E4DB206A27
:10424000384420622046FFF7C4FCBDE8FF9F000011
:104250005A2D00002DE9F0418046D21D22F00702C0
:104260000025D2E90002F52915A614D0011E72F12D
:10427000000106DA0023D0EB030063EB020211A673
:1042800008E0D8F800108B0701D50FA602E0490717
:1042900001D50EA601251146002408F1240704E0EB
:1042A00000F09CF830323A55641C50EA0102F7D114
:1042B0002B46324621464046BDE8F041FFF7ACBCF4
:1042C000000000002D0000002B0000002000000076
:1042D00030B4002100F1240408E002F00705D20800
:1042E000303542EA4372DB086554491C52EA030543
:1042F000F3D10468002310A2250708D504F0200498
:104300000C4304D0C46901230CA2641EC46130BCF8
:10431000FFF782BC10B5044621461068FFF773FC16
:1043200002462046BDE810400023D1E7D21D22F00E
:104330000701D1E90023CBE70000000030000000B6
:10434000F0B40D460188090502D5214C7C4402E0F9
:104350001F4C7C440E34002100F1240608E002F0DA
:104360000F071209E75D42EA03721B097754491CE3
:1043700052EA0307F3D102780023120704D5702D07
:1043800006D009B1022311342246F0BCFFF744BC29
:1043900001231034F8E770B504460D462146106835
:1043A000FFF731FC024629462046BDE87040002355
:1043B000C6E7D21D22F00703D3E90023C0E7036854
:1043C000126843F0200303600823C3610023B7E7AA
:1043D000BC2B000000487047C40E002030B5B0F17F
:1043E0000A024FEA900E71F100034EEA817EB0EBB3
:1043F0000E0061EB91014FEA101E4EEA017E10EBB8
:104400000E0041EB11114FEA102E4EEA016E10EB37
:104410000E0041EB11214FEA104E4EEA014E10EB17
:104420000E0041EB1141401841F100014FEAD0006C
:1044300040EA41704FEAD10110EB80054FEA810458
:1044400044EA907444EB01046D1944EB0404521BDC
:10445000A3414FF0000348BF0A3200D530BD401CD5
:1044600041F1000130BD00002DE9F0411F46044636
:1044700003260168072A01F4006004DB08B116A5D1
:1044800005E016A503E008B115A500E015A521F08B
:1044900010002060A069C01EA0610FB1401EA06185
:1044A0002046FFF780FB4FB1D4E901213846904701
:1044B000206A401C2062C01C206206E0206AFAE7E5
:1044C000D4E9012115F8010B9047761EF8D2204659
:1044D000FFF77FFBBDE8F0814E414E006E616E003C
:1044E000494E4600696E660010B5436913B1AFF3DB
:1044F000008001E0FFF750FE012010BD128800F19E
:10450000240182840022C2840122EDE711684FF069
:10451000FF32E9E72DE9F047814616468AB0334875
:1045200078440DC88DE80D0030487844801C03ACF9
:104530000DC884E80D0041F69B300844372190FBFC
:10454000F1F290FBF1F5A5F1800501FB12041B3C93
:1045500002D56442012000E00020DFF890A08046F0
:104560000027FA44AAF1BE0A0DE0E00709D032465E
:10457000684607EB47010AEB810100F05AFB8DE822
:10458000070064107F1C002CEFD1184F7F44AC3F14
:1045900018E0E80714D007EB04100DF1180A90E8B2
:1045A0000E008AE80E00C068F04201D19819089008
:1045B000324606A903A800F03CFB03AB83E80700E2
:1045C0006D10641C002DE4D132466946B8F1000F2D
:1045D00003A802D000F019FB01E000F02AFBC9E9B2
:1045E0000001C9F808200AB0BDE8F0878C2A000055
:1045F000007B00F08000704770B516460C460546FB
:1046000000F044F8036893F80101012806D0FF2C5C
:104610000FD8185D68B101202C7070BDD3F8070168
:104620003246214603F2071303442846BDE8704092
:1046300018474FF0FF3070BD00487047A40E0020AF
:104640007546FFF7F9FFAE4605006946534620F070
:104650000700854618B020B5FDF7BCFABDE820403C
:104660004FF000064FF000074FF000084FF0000B2E
:1046700021F00701AC46ACE8C009ACE8C009ACE8E1
:10468000C009ACE8C0098D467047000010B5FFF7BF
:10469000A1FE001D10BD00BF690800000446AFF375
:1046A00000802046FBF701FE4FF0013C50F8042B40
:1046B00051F8043B9A4221D1A2EB0C03934313EA35
:1046C000CC1317D150F8042B51F8043B9A4215D162
:1046D000A2EB0C03934313EACC130BD150F8042B39
:1046E00051F8043B9A4209D1A2EB0C03934313EA1D
:1046F000CC13DBD04FF00000704700BFD01A01BAD6
:10470000B1FA81F101F0180122FA01F0CB40C1F1B8
:104710002001DBB2C0B2C01A2CFA01F3D11A9143C6
:1047200011EAC311E6D170475FEA400C08BF91F06F
:10473000000F4FEA8C234FEAC12243EA51514FEA5E
:104740001C5018BF00F5F0404FEA300018BF41F090
:1047500000415FEA6C5C00F02980BCF1FF3F08BFBC
:1047600040F080407047130C06BF12044FF0100C4D
:104770004FF0000C130E04BF12020CF1080C130FC3
:1047800004BF12010CF1040C930F04BF92000CF152
:10479000020CD30F04BF52000CF1010C11464FF074
:1047A0000002A0F11F00A0EB0C00704711F0004FB9
:1047B00008BF704731F000413FF4D5AF0B0C06BF86
:1047C00009044FF0100C4FF0000C0B0E04BF09024F
:1047D0000CF1080C0B0F04BF09010CF1040C8B0F3A
:1047E00004BF89000CF1020CCB0F04BF49000CF18F
:1047F000010CCCF12003A0EB0C0022FA03F302FA27
:104800000CF241EA030100F10100704720F07F4CF7
:1048100080EA030023F07F47ACEB070303F57C53EA
:1048200000F0004003F1FF032DE980494FEA154BEA
:1048300009B44FEA144325EA0B4E24EA03480FF269
:10484000042606EB132749083E785FEA320203FB91
:104850000667C7F5000707FB06F64FEA54374FEA2D
:10486000D64606F1020607FB066CCCF1005C4FEA67
:104870001C472CEA074C07FB06F40CFB06F504EB7F
:1048800015464FEA961634BF00204FF000404FEA1D
:10489000D13706FB07FC4FEA1C4C0CFB0BF7D21B75
:1048A00003FB0CF761EB07010CFB0EF7B0EB0740C5
:1048B00072EB17420CFB08F734BFA2EB0742B2EBD6
:1048C000074261EB17414FEA0C444FEA910706FBA0
:1048D00007FC4FEA1C4C0CFB0BF7B0EBC74072EB2C
:1048E000573203FB0CF734BFA2EBC742B2EBC7420F
:1048F00061EB57310CFB0EF7B0EBC70072EB577250
:104900000CFB08F734BFA2EBC702B2EBC70261EBA6
:104910005771039F4FEA816141EA921104EBCC0485
:104920004FEAD1374FEA826206FB07FC42EA901257
:104930004FEA80604FEA1C4C0CFB0BF7D21B03FBC9
:104940000CF761EB07010CFB0EF7B0EB074072EBC5
:1049500017420CFB08F734BFA2EB0742B2EB074249
:1049600061EB17414FEA8C554FEA910704EB9C2409
:1049700006FB07FC4FEA1C4C0CFB0BF7B0EBC740E7
:1049800072EB573203FB0CF734BFA2EBC742B2EB1A
:10499000C74261EB57310CFB0EF7B0EBC70072EB6F
:1049A00057720CFB08F734BFA2EBC702B2EBC70289
:1049B00061EB577115EB4C254FEA816141EA921189
:1049C0004FEA82624FEAD13742EA901206FB07FCB7
:1049D00044F100044FEA80604FEA1C4C0CFB0BF7DB
:1049E000D21B03FB0CF761EB07010CFB0EF7B0EBDE
:1049F000074072EB17420CFB08F734BFA2EB0742EB
:104A0000B2EB074261EB174115EB1C154FEA813100
:104A100041EA92414FEA823242EA90424FEA8030C4
:104A20004FEA0C7644F1000448EA03434EEA0B488F
:104A30004FF0000EB2EB080C71EB030724BF624687
:104A400039464EEB0E0E4FF0000B00185241494113
:104A50004BEB0B0BB2EB080C71EB03077BF1000B7C
:104A600024BF624639464EEB0E0E4FF0000B001885
:104A7000524149414BEB0B0BB2EB080C71EB0307B6
:104A80007BF1000B24BF624639464EEB0E0E51EA15
:104A9000020718BF46F0010616EB0E7655F100022C
:104AA00054F1000103D5BDE88901BDE80088BDE8E7
:104AB0008901BDE80048B619524141EB0101A3F15B
:104AC0000103704780807F7E7D7C7B7A7978777662
:104AD00076757473727171706F6E6E6D6C6C6B6ADB
:104AE0006A69686867666665646463636261616079
:104AF000605F5F5E5E5D5D5C5C5B5B5A5A595958F6
:104B0000585757565655555554545353525252515F
:104B1000515050504F4F4F4E4E4D4D4D4C4C4C4BB5
:104B20004B4B4A4A4A4949494848484747474746FC
:104B30004646454545444444444343434342424238
:104B400042414141002B26D4770021D01CB54FEAC9
:104B5000370703B44FF010004FF010014FF0000082
:104B60000FBCBDE810400BF1010BBBF1010F08BFFA
:104B70005FEA170722BF12F1010211F101014FF0A4
:104B8000004143F1000300F0004043EA0000704799
:104B9000F9D35708DAE746EA064613F1400F4FEA21
:104BA00016461FDD13F1200FDFBF16430A46002112
:104BB00020335B42C8D0C3F1200746EA064602FA1A
:104BC00007F74FEA164646EA0706C3F1200722FA1E
:104BD00003F201FA07F721FA03F14FF0000342EA6A
:104BE0000702B1E746EA020646EA06464FEA1646DB
:104BF00046EA0106BCBF46EA0646360C4FF0000303
:104C00004FF000024FF000019EE72DE9C0489346A7
:104C100030B491E8380007C831EA400C48BF34EAA4
:104C2000430C03D5FFF7F2FDFFF78CFFF0BCBDE8A6
:104C300000882DE9C048934630B491E8380007C891
:104C400010F0804F08BF13F0804F03D100F005F83B
:104C5000FFF778FFF0BCBDE8008820F07F4780EACE
:104C6000030023F07F4C07EB0C03A3F57C5300F00B
:104C70000040A3F1FE0392F0000F00F0B38095F026
:104C8000000F00F077802DE901494FEA11404FEA0B
:104C9000144621EA004800FB06FC24EA064708FB0C
:104CA00006F607FB08F800FB07F718EB06484CEB85
:104CB000164C4FEA124B18EB07484FEA15464CEBDF
:104CC000174022EA0B4E0BFB06FC25EA06470EFBBB
:104CD00006F607FB0EFE0BFB07F71EEB064E4CEB32
:104CE000164C4FF000061EEB074E4CEB174B18EB23
:104CF0000B0840F1000018EB0E0B58EB000840F1D8
:104D000000008F1A4FF000013CBFC943661B14BF5F
:104D1000B5EB040C00213CBFC943F61B4FEA174416
:104D20004EEA8E0E27EA04454FEA1C4704FB076251
:104D30002CEA074C05FB07F70CFB05F604FB0CFC03
:104D400016EB074642EB174216EB0C4642EB1C42B1
:104D50001BEB060658EB0202414146EA9E0601D5CE
:104D6000BDE80189B619524141EB0101A3F10103EC
:104D7000BDE801894FEA14454FEA114724EA054688
:104D800021EA074C05FB07F406FB07F70CFB06F1CD
:104D900005FB0CFC11EB074144EB17444FEA1247AB
:104DA00011EB0C4144EB1C4422EA074C05FB07F2D3
:104DB00006FB07F70CFB06F605FB0CFC16EB07469B
:104DC00042EB174216EB0C4642EB1C456A1854F1B5
:104DD000000148BF7047B619524141EB0101A3F1F0
:104DE0000103704795F0000F37D04FEA11424FEAA8
:104DF000144721EA024624EA074C02FB07F106FBAE
:104E000007F70CFB06F402FB0CFC14EB074441EB28
:104E100017414FEA154714EB0C4441EB1C4125EABE
:104E2000074C02FB07F506FB07F70CFB06F602FB37
:104E30000CFC16EB074645EB174516EB0C4645EB0D
:104E40001C42121951F1000148BF7047B619524176
:104E500041EB0101A3F1010370474FEA14454FEA0A
:104E6000114724EA054621EA074C05FB07F106FB3A
:104E700007F70CFB06F24FF0000605FB0CFC12EBEB
:104E8000074241EB174112EB0C4251EB1C4148BF6A
:104E90007047921841EB0101A3F1010370474900EB
:104EA00050EAC12018BF04204A0D18BF40F001008D
:104EB00040F2FF72B2EB515F08BF40F002000128E0
:104EC00008BF0520704730380A2801D201207047FA
:104ED0000020704710B500290AD00878002807D0B4
:104EE00005487844FFF7E0FB002801D0002010BD02
:104EF0000248784410BD000006210000FE2000009A
:104F000010B500290AD00878002807D00548784451
:104F1000FFF7CAFB002801D0002010BD02487844EA
:104F200010BD0000F6200000EE20000021F000423D
:104F3000A2F16052B2F5801F01F0004328BFD2F108
:104F40007F6C0BD95FEA001C43EAC20242EB50704F
:104F500018BF704728BF20F001007047B2F5801FCE
:104F6000BCBF184670474FEA410C1CF5001F02D227
:104F7000084600F054BE70B500F0C8FA0000008981
:104F8000FFF7F6BF4FF00040A0F58000704700002B
:104F900010B591EA030F48BF83F0004300F112837C
:104FA000841A71EB030C05D2121943EB0C03001B9E
:104FB00061EB0C01DFF824E14FEA1154A4EB135C20
:104FC0001EEA430F18BF9EEA445F73D023EA0E0324
:104FD000DCF1200E21EA045143F4801332D322FA8B
:104FE0000CFE10EB0E0023FA0CFE41EB0E01CCF18F
:104FF000200E03FA0EFE10EB0E0051F10001B1F588
:10500000801FCCF1200E32D201EB045112FA0EF2C5
:10501000BDE8104058BF7047401C38BF5FEA4202ED
:1050200018BF7047002814BF20F0010041F10001B3
:105030004FEA410313F5001F38BF7047A1F1C0418B
:1050400000F0B2BA012A43EB0302ACF1200CDCF110
:105050001F0E32BF4FF0000E23FA0CF310EB0300CB
:1050600041EB0451B4EB115FD0D0A1EB045101F539
:10507000801149085FEA300001EB04510ED350F172
:10508000000038BF12FA0EFE08D1BDE81040C9E793
:10509000401C38BF5FEA4202CAD1C3E7BDE81040F6
:1050A0004FEA410313F5001F38BF7047A1F1C0411B
:1050B00000F07ABA9EEA445F08D011EA5E0FBDE8BC
:1050C000104004BF01F0004100207047BDE81040CF
:1050D00070B500F01BFA00BF64FBBE3E0000E0FFAD
:1050E0002DE9C04130B4DFF8A0C23CEA111418BF6A
:1050F0003CEA131400F0EC8081EA03051CEA111469
:1051000044EAD57418BF1CEA131500F0C780A4EB5D
:1051100005044FF0004545EAC12145EAC32341EAB1
:10512000505143EA525304F17F74994204F500341C
:105130004FEAC0204FEAC22208BF904200F09C8094
:105140004FEA13650FF24016765D4FEA134506FBF2
:1051500005F7C7F1807706FB07F74FEAD737A7FBBC
:1051600003687642C8F58038A7FB06CE38BFA8F1A1
:10517000010807FB08E64FF0000EA6FB028CE6FBD9
:1051800003CEDCF1000CCEF1004E38BFAEF1010EC3
:10519000A6FB0C584FF000074FF00005E6FB0E870A
:1051A000A1FB08C6A0FB07CE16EB0E0645F10005D5
:1051B000E1FB076515F1E04E7EBFA4F580345FEAA0
:1051C00046066D4116F1800745F100054FEA1727A5
:1051D0004FEA066647EA0567A6F1DE46B6F1805F4C
:1051E0004FEA15251FD9384624F0010C05EBC47190
:1051F000BCF1FE6F01EB0C1102D8F0BCBDE80081E0
:1052000024425CBF01F5801E9EEAC47F02D4F0BC3C
:10521000BDE80081244238D4F0BCA1F1C041BDE812
:10522000004100F0C1B94FEAD22242EA43524FEAAC
:10523000D323A7FB02864FEAD02040EA415007FB68
:1052400003661EEA0E0F4FEAD12105FB026658BF26
:10525000A6EB0056B6EB00564FEA520E4EEAC37E5E
:1052600018EB0E0E56EB530EBDD518EB02085E413F
:105270007F1C55F10005B6E74FF480154FF000078D
:105280004FF000064FF00008ADE7F0BC4FF0000013
:1052900001F1C04101F00041BDE8008111EA0C1F9D
:1052A0000CEA131500D00CE013EA0C1F00F0258067
:1052B0004FF00000F0BC81EA030101F00041BDE8BD
:1052C0000081F0BCBDE8004181EA030100F06CB947
:1052D000F0BCBDE8004170B500F018F9097EFC3E55
:1052E00000F007B881EA03014FF0000001F000412F
:1052F000704781EA030100F057B9F0BCBDE80041F6
:105300004FF0000021497047FFFDFBF9F7F5F4F27B
:10531000F0EEEDEBE9E8E6E4E3E1E0DEDDDBDAD850
:10532000D7D5D4D3D1D0CFCDCCCBCAC8C7C6C5C4AE
:10533000C2C1C0BFBEBDBCBBBAB9B8B7B6B5B4B3C5
:10534000B2B1B0AFAEADACABAAA9A8A8A7A6A5A4B0
:10535000A3A3A2A1A09F9F9E9D9C9C9B9A99999874
:105360009797969595949393929191908F8F8E8E17
:105370008D8C8C8B8B8A89898888878786858584A4
:1053800084838382828181800000FF070000F87F90
:10539000B0FA80F310FA03F10AD0C3F11D0303F54C
:1053A00080634FEA41504FEA035202EBD12170472C
:1053B0004FF0000070470000DFF848C170B51CEAEC
:1053C000111E1EBF1CEA13159EEA0C0F95EA0C0F66
:1053D00000F06F8081EA030423EA4C134EEAD47E86
:1053E00021EA4C1141F4801143F48013AE44A1FB37
:1053F000024CA0FB0365AEF17F7E361955EB0C0520
:10540000A1FB034C4CF10003A0FB021C16EB0C06A5
:10541000654153F10003094218BF46F0010613F439
:10542000007F0BD14FEA03314FEA0530340341EAE4
:10543000155140EA16506FF003020AE04FEAC3210B
:105440004FEAC520F40241EA555140EA56506FF048
:10545000020202EB2E4201EB025585EACE710AD020
:105460005FEA440C18BF24F0004450F1000041F101
:10547000000120EAD47040F2FE7C624500D270BD8B
:10548000A84214BF4FF080444FF04044002E08BFA4
:105490000024BEF1806FA8BFA1F1C041BDE87040FB
:1054A00080F282804FF0000001F1C04101F0004124
:1054B00070479EEA0C0F0CEA131518BF95EA0C0F03
:1054C00006D04FF0000081EA030E0EF0004170BDDF
:1054D00000F01CF88900013E00F007B800F009B8A0
:1054E0004FEA430C5FEA5C5C08D081EA030100F0FC
:1054F0005BB84FEA410C5FEA5C5CF6D14FF000000C
:10550000014970470000FF070000F87F0EF1020E0E
:105510002EF0030E5EF8046B364205D4012A43EBED
:10552000030515F5001F12D8012841EB010C1CF5ED
:10553000001F0CD80ED14FEAD17C15F5001F0CEBE3
:105540004C0C0CF1020C08BF4CEBD37C04E04FF088
:10555000080C01E04FEAD37C0CEB4C0526FA05F66B
:1055600006F00706B6F1040C06D20EEB860CBDE879
:1055700070404CF0010C6047DFE80CF0090B0202B0
:105580004FF000414FF00000A1F5002170BD194619
:105590001046012851EB010418BFD4F5001484BF54
:1055A000002001F0004170BD0808A0F500114FEA8D
:1055B0003101704710B591EA030F48BF83F00043F3
:1055C0003FF5EEAC841A71EB030C07D212198CF084
:1055D000004C43EB0C03001B61EB0C01DFF8A4E172
:1055E0004FEA1154A4EB135C1EEA430F18BF9EEA66
:1055F000445F00F0B08023EA6E03524221EA045176
:10560000C3EB6E0338BF5B1EDCF1200E25D322FAFC
:105610000CFE10EB0E0043FA0CFE41EB0E01CCF138
:10562000200E03FA0EFE10EB0E0051F10001CCF13A
:10563000200E29D412FA0EF201EB0451BDE81040FD
:1056400058BF7047401C1CBFB2F1004F7047002884
:105650000CBF491C20F00100704712EB020E43EB17
:10566000030218BF4FF0010E4EEA4202ACF1200CCB
:10567000DCF11E0E54D943FA0CFE10EB0E0051F172
:10568000FF31CCF11E0ED5D50EF1010E12FA0EFE31
:10569000404141EB010101EB445C5FEA5C5C10D9E5
:1056A00010EBDE7001EB045138BFBEF1004FBDE8D6
:1056B000104018BF704700280CBF491C20F00100A3
:1056C000704730D24FEAD42C11F5001124F4006455
:1056D0001BD0B1FA81F20B3AA41AA41ED2F1200316
:1056E000914030FA03F31943904001EBCC71002C48
:1056F00001EB0451BDE81040A8BF704701F1C04163
:105700004FF0000001F000417047B0FA80F310FA4A
:1057100003F100D110BDE41A173C4805C90AE4E7BB
:1057200001EB045110BD491001EB0451BDE81040DC
:105730004FEA300002E04FF0000170474A0008BF16
:105740000042F8D0B2F5001F28BF704701F00041B9
:105750004FF0000070479EEA445F07D011EA5E0FE9
:10576000BDE8104004BF002100207047BDE8104094
:1057700070B5FFF7CBFE00BF40DFF63E83F000417F
:10578000104670470000E0FF43004FEAD30C4FEA99
:105790003C0C43401FBF40070CF1605113F0FE4F1B
:1057A00070471CF0006F03D100200CF000417047DF
:1057B0000CF0004343EA507010B540EACC0000F012
:1057C000E8F900BF000000924FEA0001FFF7ECBECD
:1057D0004FF000414FF00000A1F50021704700009C
:1057E00090EA010F48BF81F0004100F12482421A83
:1057F0003CBF801A89184FEAD0524FF07F4C1CEA08
:10580000410FA2EBD15318BF9CEA026F00F03B801E
:105810004FF0004C4CEA00204CEA012121FA03FC35
:1058200010EB0C0C1ED202F1FF325FEA1C2040EBA1
:10583000C25038BF70471CF07F0F4FEA400C18BFB2
:10584000BCF17F4F38BF7047C3F12003994008BFB8
:1058500020F00100BCF17F4F38BF7047A0F1C0407D
:1058600000F0DDB94FEA3C00000A40EBC25028BF0F
:105870001CF0FF0F4FEA400CE6D018BFBCF17F4F81
:1058800038BF7047EAE79CEA026F05D010EA5C0F68
:1058900008BF00F00040704710B500F07AF900BF73
:1058A00064FBBE3E4FF47F0C1CEAD0121EBF1CEA04
:1058B000D11392EA0C0F93EA0C0F00F0858090EA66
:1058C000010F48BF42F4807240F4000C41F4000024
:1058D0002CF07F4120F07F4000B58142A2EB030213
:1058E0000FF2081CACEB504EC0F100009EF800E037
:1058F0004FEA4E0E00FB0EFC38BF49004FEA2C1C4D
:1059000002F5FA020CFB0EF34FEACE1E4FEA112C01
:105910004FEAC1210EEB635E42EB22420EFB0CFC10
:105920004FEA1C5300FB03114FEA112C4FEA0131DF
:105930000EFB0CFC4FEADC4C00FB0C11C14228BFF3
:1059400009184CEB03335DF804EB10EB410143EB1A
:10595000C250B2F57C0F38BF704729D512F0F00F56
:105960001CBF00F1C04000F00040704700818283FE
:105970008485868788898B8C8D8E8F91929395965E
:1059800097999A9C9D9FA0A2A3A5A7A8AAACAEB0E8
:10599000B2B3B5B7B9BCBEC0C2C5C7C9CCCED1D4ED
:1059A000D7D9DCDFE2E6E9ECF0F3F7FAFE0000001D
:1059B0004FEA400C0CF1807CBCF17E4F28BF704751
:1059C000B0F1C04000F02BB990EA010F0CEAD113FE
:1059D00048BF42F48072624538BF634507D213F472
:1059E0007F0F16D080EA010000F00040704710B52C
:1059F00000F0CFF8097EFC3E00F005B880EA010017
:105A000000F00040704780EA010000F0004000F024
:105A100006B912F47F0F04BF0248704780EA010004
:105A200000F0FDB80000C07FC10DD1F19E0206DB81
:105A30004FEA002343F0004323FA02F0704700428C
:105A400007D54FEA4001B1F1FE4F02D24FF00000FE
:105A5000704710B500F09DF84992248000207047EF
:105A60006FEA200070470000B0FA80F310FA03F2EA
:105A7000C3F19D030AD0D90501EB1220530638BFAC
:105A8000704700F1010008BF20F0010070470000DE
:105A90004FF47F0C1CEAD0121EBF1CEAD11392EA0D
:105AA0000C0F93EA0C0F00F0478090EA010F48BFFB
:105AB00042F480724FF0004C4CEA00204CEA012185
:105AC00002EB0302A0FB0113A2F50002002918BF9C
:105AD00043F001035B0028BF4FEA330342EB22424D
